{
  "contractName": "ApiNFT",
  "abi": [
    {
      "inputs": [],
      "stateMutability": "nonpayable",
      "type": "constructor"
    },
    {
      "inputs": [],
      "name": "ERC721EnumerableForbiddenBatchMint",
      "type": "error"
    },
    {
      "inputs": [
        {
          "internalType": "address",
          "name": "sender",
          "type": "address"
        },
        {
          "internalType": "uint256",
          "name": "tokenId",
          "type": "uint256"
        },
        {
          "internalType": "address",
          "name": "owner",
          "type": "address"
        }
      ],
      "name": "ERC721IncorrectOwner",
      "type": "error"
    },
    {
      "inputs": [
        {
          "internalType": "address",
          "name": "operator",
          "type": "address"
        },
        {
          "internalType": "uint256",
          "name": "tokenId",
          "type": "uint256"
        }
      ],
      "name": "ERC721InsufficientApproval",
      "type": "error"
    },
    {
      "inputs": [
        {
          "internalType": "address",
          "name": "approver",
          "type": "address"
        }
      ],
      "name": "ERC721InvalidApprover",
      "type": "error"
    },
    {
      "inputs": [
        {
          "internalType": "address",
          "name": "operator",
          "type": "address"
        }
      ],
      "name": "ERC721InvalidOperator",
      "type": "error"
    },
    {
      "inputs": [
        {
          "internalType": "address",
          "name": "owner",
          "type": "address"
        }
      ],
      "name": "ERC721InvalidOwner",
      "type": "error"
    },
    {
      "inputs": [
        {
          "internalType": "address",
          "name": "receiver",
          "type": "address"
        }
      ],
      "name": "ERC721InvalidReceiver",
      "type": "error"
    },
    {
      "inputs": [
        {
          "internalType": "address",
          "name": "sender",
          "type": "address"
        }
      ],
      "name": "ERC721InvalidSender",
      "type": "error"
    },
    {
      "inputs": [
        {
          "internalType": "uint256",
          "name": "tokenId",
          "type": "uint256"
        }
      ],
      "name": "ERC721NonexistentToken",
      "type": "error"
    },
    {
      "inputs": [
        {
          "internalType": "address",
          "name": "owner",
          "type": "address"
        },
        {
          "internalType": "uint256",
          "name": "index",
          "type": "uint256"
        }
      ],
      "name": "ERC721OutOfBoundsIndex",
      "type": "error"
    },
    {
      "inputs": [
        {
          "internalType": "address",
          "name": "owner",
          "type": "address"
        }
      ],
      "name": "OwnableInvalidOwner",
      "type": "error"
    },
    {
      "inputs": [
        {
          "internalType": "address",
          "name": "account",
          "type": "address"
        }
      ],
      "name": "OwnableUnauthorizedAccount",
      "type": "error"
    },
    {
      "anonymous": false,
      "inputs": [
        {
          "indexed": true,
          "internalType": "address",
          "name": "owner",
          "type": "address"
        },
        {
          "indexed": true,
          "internalType": "address",
          "name": "approved",
          "type": "address"
        },
        {
          "indexed": true,
          "internalType": "uint256",
          "name": "tokenId",
          "type": "uint256"
        }
      ],
      "name": "Approval",
      "type": "event"
    },
    {
      "anonymous": false,
      "inputs": [
        {
          "indexed": true,
          "internalType": "address",
          "name": "owner",
          "type": "address"
        },
        {
          "indexed": true,
          "internalType": "address",
          "name": "operator",
          "type": "address"
        },
        {
          "indexed": false,
          "internalType": "bool",
          "name": "approved",
          "type": "bool"
        }
      ],
      "name": "ApprovalForAll",
      "type": "event"
    },
    {
      "anonymous": false,
      "inputs": [
        {
          "indexed": true,
          "internalType": "address",
          "name": "previousOwner",
          "type": "address"
        },
        {
          "indexed": true,
          "internalType": "address",
          "name": "newOwner",
          "type": "address"
        }
      ],
      "name": "OwnershipTransferred",
      "type": "event"
    },
    {
      "anonymous": false,
      "inputs": [
        {
          "indexed": true,
          "internalType": "address",
          "name": "from",
          "type": "address"
        },
        {
          "indexed": true,
          "internalType": "address",
          "name": "to",
          "type": "address"
        },
        {
          "indexed": true,
          "internalType": "uint256",
          "name": "tokenId",
          "type": "uint256"
        }
      ],
      "name": "Transfer",
      "type": "event"
    },
    {
      "inputs": [
        {
          "internalType": "address",
          "name": "to",
          "type": "address"
        },
        {
          "internalType": "uint256",
          "name": "tokenId",
          "type": "uint256"
        }
      ],
      "name": "approve",
      "outputs": [],
      "stateMutability": "nonpayable",
      "type": "function"
    },
    {
      "inputs": [
        {
          "internalType": "address",
          "name": "owner",
          "type": "address"
        }
      ],
      "name": "balanceOf",
      "outputs": [
        {
          "internalType": "uint256",
          "name": "",
          "type": "uint256"
        }
      ],
      "stateMutability": "view",
      "type": "function",
      "constant": true
    },
    {
      "inputs": [
        {
          "internalType": "uint256",
          "name": "tokenId",
          "type": "uint256"
        }
      ],
      "name": "getApproved",
      "outputs": [
        {
          "internalType": "address",
          "name": "",
          "type": "address"
        }
      ],
      "stateMutability": "view",
      "type": "function",
      "constant": true
    },
    {
      "inputs": [
        {
          "internalType": "address",
          "name": "owner",
          "type": "address"
        },
        {
          "internalType": "address",
          "name": "operator",
          "type": "address"
        }
      ],
      "name": "isApprovedForAll",
      "outputs": [
        {
          "internalType": "bool",
          "name": "",
          "type": "bool"
        }
      ],
      "stateMutability": "view",
      "type": "function",
      "constant": true
    },
    {
      "inputs": [],
      "name": "name",
      "outputs": [
        {
          "internalType": "string",
          "name": "",
          "type": "string"
        }
      ],
      "stateMutability": "view",
      "type": "function",
      "constant": true
    },
    {
      "inputs": [],
      "name": "owner",
      "outputs": [
        {
          "internalType": "address",
          "name": "",
          "type": "address"
        }
      ],
      "stateMutability": "view",
      "type": "function",
      "constant": true
    },
    {
      "inputs": [
        {
          "internalType": "uint256",
          "name": "tokenId",
          "type": "uint256"
        }
      ],
      "name": "ownerOf",
      "outputs": [
        {
          "internalType": "address",
          "name": "",
          "type": "address"
        }
      ],
      "stateMutability": "view",
      "type": "function",
      "constant": true
    },
    {
      "inputs": [],
      "name": "renounceOwnership",
      "outputs": [],
      "stateMutability": "nonpayable",
      "type": "function"
    },
    {
      "inputs": [
        {
          "internalType": "address",
          "name": "from",
          "type": "address"
        },
        {
          "internalType": "address",
          "name": "to",
          "type": "address"
        },
        {
          "internalType": "uint256",
          "name": "tokenId",
          "type": "uint256"
        }
      ],
      "name": "safeTransferFrom",
      "outputs": [],
      "stateMutability": "nonpayable",
      "type": "function"
    },
    {
      "inputs": [
        {
          "internalType": "address",
          "name": "from",
          "type": "address"
        },
        {
          "internalType": "address",
          "name": "to",
          "type": "address"
        },
        {
          "internalType": "uint256",
          "name": "tokenId",
          "type": "uint256"
        },
        {
          "internalType": "bytes",
          "name": "data",
          "type": "bytes"
        }
      ],
      "name": "safeTransferFrom",
      "outputs": [],
      "stateMutability": "nonpayable",
      "type": "function"
    },
    {
      "inputs": [
        {
          "internalType": "address",
          "name": "operator",
          "type": "address"
        },
        {
          "internalType": "bool",
          "name": "approved",
          "type": "bool"
        }
      ],
      "name": "setApprovalForAll",
      "outputs": [],
      "stateMutability": "nonpayable",
      "type": "function"
    },
    {
      "inputs": [
        {
          "internalType": "bytes4",
          "name": "interfaceId",
          "type": "bytes4"
        }
      ],
      "name": "supportsInterface",
      "outputs": [
        {
          "internalType": "bool",
          "name": "",
          "type": "bool"
        }
      ],
      "stateMutability": "view",
      "type": "function",
      "constant": true
    },
    {
      "inputs": [],
      "name": "symbol",
      "outputs": [
        {
          "internalType": "string",
          "name": "",
          "type": "string"
        }
      ],
      "stateMutability": "view",
      "type": "function",
      "constant": true
    },
    {
      "inputs": [
        {
          "internalType": "uint256",
          "name": "index",
          "type": "uint256"
        }
      ],
      "name": "tokenByIndex",
      "outputs": [
        {
          "internalType": "uint256",
          "name": "",
          "type": "uint256"
        }
      ],
      "stateMutability": "view",
      "type": "function",
      "constant": true
    },
    {
      "inputs": [],
      "name": "tokenCounter",
      "outputs": [
        {
          "internalType": "uint256",
          "name": "",
          "type": "uint256"
        }
      ],
      "stateMutability": "view",
      "type": "function",
      "constant": true
    },
    {
      "inputs": [
        {
          "internalType": "address",
          "name": "owner",
          "type": "address"
        },
        {
          "internalType": "uint256",
          "name": "index",
          "type": "uint256"
        }
      ],
      "name": "tokenOfOwnerByIndex",
      "outputs": [
        {
          "internalType": "uint256",
          "name": "",
          "type": "uint256"
        }
      ],
      "stateMutability": "view",
      "type": "function",
      "constant": true
    },
    {
      "inputs": [],
      "name": "totalSupply",
      "outputs": [
        {
          "internalType": "uint256",
          "name": "",
          "type": "uint256"
        }
      ],
      "stateMutability": "view",
      "type": "function",
      "constant": true
    },
    {
      "inputs": [
        {
          "internalType": "address",
          "name": "from",
          "type": "address"
        },
        {
          "internalType": "address",
          "name": "to",
          "type": "address"
        },
        {
          "internalType": "uint256",
          "name": "tokenId",
          "type": "uint256"
        }
      ],
      "name": "transferFrom",
      "outputs": [],
      "stateMutability": "nonpayable",
      "type": "function"
    },
    {
      "inputs": [
        {
          "internalType": "address",
          "name": "newOwner",
          "type": "address"
        }
      ],
      "name": "transferOwnership",
      "outputs": [],
      "stateMutability": "nonpayable",
      "type": "function"
    },
    {
      "inputs": [
        {
          "internalType": "address",
          "name": "recipient",
          "type": "address"
        },
        {
          "internalType": "string",
          "name": "tokenURI",
          "type": "string"
        },
        {
          "internalType": "string",
          "name": "tokenString",
          "type": "string"
        }
      ],
      "name": "createNFT",
      "outputs": [
        {
          "internalType": "uint256",
          "name": "",
          "type": "uint256"
        }
      ],
      "stateMutability": "nonpayable",
      "type": "function"
    },
    {
      "inputs": [
        {
          "internalType": "uint256",
          "name": "tokenId",
          "type": "uint256"
        }
      ],
      "name": "tokenURI",
      "outputs": [
        {
          "internalType": "string",
          "name": "",
          "type": "string"
        }
      ],
      "stateMutability": "view",
      "type": "function",
      "constant": true
    },
    {
      "inputs": [
        {
          "internalType": "uint256",
          "name": "tokenId",
          "type": "uint256"
        }
      ],
      "name": "tokenString",
      "outputs": [
        {
          "internalType": "string",
          "name": "",
          "type": "string"
        }
      ],
      "stateMutability": "view",
      "type": "function",
      "constant": true
    },
    {
      "inputs": [
        {
          "internalType": "address",
          "name": "owner",
          "type": "address"
        }
      ],
      "name": "tokensOfOwner",
      "outputs": [
        {
          "internalType": "uint256[]",
          "name": "",
          "type": "uint256[]"
        }
      ],
      "stateMutability": "view",
      "type": "function",
      "constant": true
    }
  ],
  "bytecode": "0x608060405234801562000010575f80fd5b50336040518060400160405280600681526020017f4170694e465400000000000000000000000000000000000000000000000000008152506040518060400160405280600681526020017f4170694e46540000000000000000000000000000000000000000000000000000815250815f90816200008e91906200045c565b508060019081620000a091906200045c565b5050505f73ffffffffffffffffffffffffffffffffffffffff168173ffffffffffffffffffffffffffffffffffffffff160362000116575f6040517f1e4fbdf70000000000000000000000000000000000000000000000000000000081526004016200010d919062000583565b60405180910390fd5b62000127816200013560201b60201c565b505f600b819055506200059e565b5f600a5f9054906101000a900473ffffffffffffffffffffffffffffffffffffffff16905081600a5f6101000a81548173ffffffffffffffffffffffffffffffffffffffff021916908373ffffffffffffffffffffffffffffffffffffffff1602179055508173ffffffffffffffffffffffffffffffffffffffff168173ffffffffffffffffffffffffffffffffffffffff167f8be0079c531659141344cd1fd0a4f28419497f9722a3daafe3b4186f6b6457e060405160405180910390a35050565b5f81519050919050565b7f4e487b71000000000000000000000000000000000000000000000000000000005f52604160045260245ffd5b7f4e487b71000000000000000000000000000000000000000000000000000000005f52602260045260245ffd5b5f60028204905060018216806200027457607f821691505b6020821081036200028a57620002896200022f565b5b50919050565b5f819050815f5260205f209050919050565b5f6020601f8301049050919050565b5f82821b905092915050565b5f60088302620002ee7fffffffffffffffffffffffffffffffffffffffffffffffffffffffffffffffff82620002b1565b620002fa8683620002b1565b95508019841693508086168417925050509392505050565b5f819050919050565b5f819050919050565b5f620003446200033e620003388462000312565b6200031b565b62000312565b9050919050565b5f819050919050565b6200035f8362000324565b620003776200036e826200034b565b848454620002bd565b825550505050565b5f90565b6200038d6200037f565b6200039a81848462000354565b505050565b5b81811015620003c157620003b55f8262000383565b600181019050620003a0565b5050565b601f8211156200041057620003da8162000290565b620003e584620002a2565b81016020851015620003f5578190505b6200040d6200040485620002a2565b8301826200039f565b50505b505050565b5f82821c905092915050565b5f620004325f198460080262000415565b1980831691505092915050565b5f6200044c838362000421565b9150826002028217905092915050565b6200046782620001f8565b67ffffffffffffffff81111562000483576200048262000202565b5b6200048f82546200025c565b6200049c828285620003c5565b5f60209050601f831160018114620004d2575f8415620004bd578287015190505b620004c985826200043f565b86555062000538565b601f198416620004e28662000290565b5f5b828110156200050b57848901518255600182019150602085019450602081019050620004e4565b868310156200052b578489015162000527601f89168262000421565b8355505b6001600288020188555050505b505050505050565b5f73ffffffffffffffffffffffffffffffffffffffff82169050919050565b5f6200056b8262000540565b9050919050565b6200057d816200055f565b82525050565b5f602082019050620005985f83018462000572565b92915050565b612bb180620005ac5f395ff3fe608060405234801561000f575f80fd5b506004361061014b575f3560e01c80636352211e116100c1578063a22cb4651161007a578063a22cb465146103d5578063b88d4fde146103f1578063c87b56dd1461040d578063d082e3811461043d578063e985e9c51461045b578063f2fde38b1461048b5761014b565b80636352211e146102ff57806370a082311461032f578063715018a61461035f5780638462151c146103695780638da5cb5b1461039957806395d89b41146103b75761014b565b806318160ddd1161011357806318160ddd1461021957806323b872dd146102375780632f745c591461025357806342842e0e146102835780634f6ccce71461029f57806357dfae8d146102cf5761014b565b806301ffc9a71461014f57806306fdde031461017f578063081812fc1461019d578063095ea7b3146101cd5780630b564a7c146101e9575b5f80fd5b61016960048036038101906101649190611f62565b6104a7565b6040516101769190611fa7565b60405180910390f35b610187610520565b604051610194919061204a565b60405180910390f35b6101b760048036038101906101b2919061209d565b6105af565b6040516101c49190612107565b60405180910390f35b6101e760048036038101906101e2919061214a565b6105ca565b005b61020360048036038101906101fe91906122b4565b6105e0565b604051610210919061234b565b60405180910390f35b61022161062f565b60405161022e919061234b565b60405180910390f35b610251600480360381019061024c9190612364565b61063b565b005b61026d6004803603810190610268919061214a565b61073a565b60405161027a919061234b565b60405180910390f35b61029d60048036038101906102989190612364565b6107de565b005b6102b960048036038101906102b4919061209d565b6107fd565b6040516102c6919061234b565b60405180910390f35b6102e960048036038101906102e4919061209d565b61086f565b6040516102f6919061204a565b60405180910390f35b6103196004803603810190610314919061209d565b610910565b6040516103269190612107565b60405180910390f35b610349600480360381019061034491906123b4565b610921565b604051610356919061234b565b60405180910390f35b6103676109d7565b005b610383600480360381019061037e91906123b4565b6109ea565b6040516103909190612496565b60405180910390f35b6103a1610aee565b6040516103ae9190612107565b60405180910390f35b6103bf610b16565b6040516103cc919061204a565b60405180910390f35b6103ef60048036038101906103ea91906124e0565b610ba6565b005b61040b600480360381019061040691906125bc565b610bbc565b005b6104276004803603810190610422919061209d565b610bd9565b604051610434919061204a565b60405180910390f35b610445610c7a565b604051610452919061234b565b60405180910390f35b6104756004803603810190610470919061263c565b610c80565b6040516104829190611fa7565b60405180910390f35b6104a560048036038101906104a091906123b4565b610d0e565b005b5f7f780e9d63000000000000000000000000000000000000000000000000000000007bffffffffffffffffffffffffffffffffffffffffffffffffffffffff1916827bffffffffffffffffffffffffffffffffffffffffffffffffffffffff19161480610519575061051882610d92565b5b9050919050565b60605f805461052e906126a7565b80601f016020809104026020016040519081016040528092919081815260200182805461055a906126a7565b80156105a55780601f1061057c576101008083540402835291602001916105a5565b820191905f5260205f20905b81548152906001019060200180831161058857829003601f168201915b5050505050905090565b5f6105b982610e73565b506105c382610ef9565b9050919050565b6105dc82826105d7610f32565b610f39565b5050565b5f6105e9610f4b565b5f600b5490506105f98582610fd2565b6106038185610fef565b61060d8184611012565b600b5f81548092919061061f90612704565b9190505550809150509392505050565b5f600880549050905090565b5f73ffffffffffffffffffffffffffffffffffffffff168273ffffffffffffffffffffffffffffffffffffffff16036106ab575f6040517f64a0ae920000000000000000000000000000000000000000000000000000000081526004016106a29190612107565b60405180910390fd5b5f6106be83836106b9610f32565b611035565b90508373ffffffffffffffffffffffffffffffffffffffff168173ffffffffffffffffffffffffffffffffffffffff1614610734578382826040517f64283d7b00000000000000000000000000000000000000000000000000000000815260040161072b9392919061274b565b60405180910390fd5b50505050565b5f61074483610921565b82106107895782826040517fa57d13dc000000000000000000000000000000000000000000000000000000008152600401610780929190612780565b60405180910390fd5b60065f8473ffffffffffffffffffffffffffffffffffffffff1673ffffffffffffffffffffffffffffffffffffffff1681526020019081526020015f205f8381526020019081526020015f2054905092915050565b6107f883838360405180602001604052805f815250610bbc565b505050565b5f61080661062f565b821061084b575f826040517fa57d13dc000000000000000000000000000000000000000000000000000000008152600401610842929190612780565b60405180910390fd5b6008828154811061085f5761085e6127a7565b5b905f5260205f2001549050919050565b6060600d5f8381526020019081526020015f20805461088d906126a7565b80601f01602080910402602001604051908101604052809291908181526020018280546108b9906126a7565b80156109045780601f106108db57610100808354040283529160200191610904565b820191905f5260205f20905b8154815290600101906020018083116108e757829003601f168201915b50505050509050919050565b5f61091a82610e73565b9050919050565b5f8073ffffffffffffffffffffffffffffffffffffffff168273ffffffffffffffffffffffffffffffffffffffff1603610992575f6040517f89c62b640000000000000000000000000000000000000000000000000000000081526004016109899190612107565b60405180910390fd5b60035f8373ffffffffffffffffffffffffffffffffffffffff1673ffffffffffffffffffffffffffffffffffffffff1681526020019081526020015f20549050919050565b6109df610f4b565b6109e85f61114f565b565b60605f6109f683610921565b90505f8103610a50575f67ffffffffffffffff811115610a1957610a18612190565b5b604051908082528060200260200182016040528015610a475781602001602082028036833780820191505090505b50915050610ae9565b5f8167ffffffffffffffff811115610a6b57610a6a612190565b5b604051908082528060200260200182016040528015610a995781602001602082028036833780820191505090505b5090505f5b82811015610ae257610ab0858261073a565b828281518110610ac357610ac26127a7565b5b6020026020010181815250508080610ada90612704565b915050610a9e565b5080925050505b919050565b5f600a5f9054906101000a900473ffffffffffffffffffffffffffffffffffffffff16905090565b606060018054610b25906126a7565b80601f0160208091040260200160405190810160405280929190818152602001828054610b51906126a7565b8015610b9c5780601f10610b7357610100808354040283529160200191610b9c565b820191905f5260205f20905b815481529060010190602001808311610b7f57829003601f168201915b5050505050905090565b610bb8610bb1610f32565b8383611212565b5050565b610bc784848461063b565b610bd38484848461137b565b50505050565b6060600c5f8381526020019081526020015f208054610bf7906126a7565b80601f0160208091040260200160405190810160405280929190818152602001828054610c23906126a7565b8015610c6e5780601f10610c4557610100808354040283529160200191610c6e565b820191905f5260205f20905b815481529060010190602001808311610c5157829003601f168201915b50505050509050919050565b600b5481565b5f60055f8473ffffffffffffffffffffffffffffffffffffffff1673ffffffffffffffffffffffffffffffffffffffff1681526020019081526020015f205f8373ffffffffffffffffffffffffffffffffffffffff1673ffffffffffffffffffffffffffffffffffffffff1681526020019081526020015f205f9054906101000a900460ff16905092915050565b610d16610f4b565b5f73ffffffffffffffffffffffffffffffffffffffff168173ffffffffffffffffffffffffffffffffffffffff1603610d86575f6040517f1e4fbdf7000000000000000000000000000000000000000000000000000000008152600401610d7d9190612107565b60405180910390fd5b610d8f8161114f565b50565b5f7f80ac58cd000000000000000000000000000000000000000000000000000000007bffffffffffffffffffffffffffffffffffffffffffffffffffffffff1916827bffffffffffffffffffffffffffffffffffffffffffffffffffffffff19161480610e5c57507f5b5e139f000000000000000000000000000000000000000000000000000000007bffffffffffffffffffffffffffffffffffffffffffffffffffffffff1916827bffffffffffffffffffffffffffffffffffffffffffffffffffffffff1916145b80610e6c5750610e6b8261152d565b5b9050919050565b5f80610e7e83611596565b90505f73ffffffffffffffffffffffffffffffffffffffff168173ffffffffffffffffffffffffffffffffffffffff1603610ef057826040517f7e273289000000000000000000000000000000000000000000000000000000008152600401610ee7919061234b565b60405180910390fd5b80915050919050565b5f60045f8381526020019081526020015f205f9054906101000a900473ffffffffffffffffffffffffffffffffffffffff169050919050565b5f33905090565b610f4683838360016115cf565b505050565b610f53610f32565b73ffffffffffffffffffffffffffffffffffffffff16610f71610aee565b73ffffffffffffffffffffffffffffffffffffffff1614610fd057610f94610f32565b6040517f118cdaa7000000000000000000000000000000000000000000000000000000008152600401610fc79190612107565b60405180910390fd5b565b610feb828260405180602001604052805f81525061178e565b5050565b80600c5f8481526020019081526020015f20908161100d9190612971565b505050565b80600d5f8481526020019081526020015f2090816110309190612971565b505050565b5f806110428585856117a9565b90505f73ffffffffffffffffffffffffffffffffffffffff168173ffffffffffffffffffffffffffffffffffffffff160361108557611080846119b4565b6110c4565b8473ffffffffffffffffffffffffffffffffffffffff168173ffffffffffffffffffffffffffffffffffffffff16146110c3576110c281856119f8565b5b5b5f73ffffffffffffffffffffffffffffffffffffffff168573ffffffffffffffffffffffffffffffffffffffff16036111055761110084611b42565b611144565b8473ffffffffffffffffffffffffffffffffffffffff168173ffffffffffffffffffffffffffffffffffffffff1614611143576111428585611c02565b5b5b809150509392505050565b5f600a5f9054906101000a900473ffffffffffffffffffffffffffffffffffffffff16905081600a5f6101000a81548173ffffffffffffffffffffffffffffffffffffffff021916908373ffffffffffffffffffffffffffffffffffffffff1602179055508173ffffffffffffffffffffffffffffffffffffffff168173ffffffffffffffffffffffffffffffffffffffff167f8be0079c531659141344cd1fd0a4f28419497f9722a3daafe3b4186f6b6457e060405160405180910390a35050565b5f73ffffffffffffffffffffffffffffffffffffffff168273ffffffffffffffffffffffffffffffffffffffff160361128257816040517f5b08ba180000000000000000000000000000000000000000000000000000000081526004016112799190612107565b60405180910390fd5b8060055f8573ffffffffffffffffffffffffffffffffffffffff1673ffffffffffffffffffffffffffffffffffffffff1681526020019081526020015f205f8473ffffffffffffffffffffffffffffffffffffffff1673ffffffffffffffffffffffffffffffffffffffff1681526020019081526020015f205f6101000a81548160ff0219169083151502179055508173ffffffffffffffffffffffffffffffffffffffff168373ffffffffffffffffffffffffffffffffffffffff167f17307eab39ab6107e8899845ad3d59bd9653f200f220920489ca2b5937696c318360405161136e9190611fa7565b60405180910390a3505050565b5f8373ffffffffffffffffffffffffffffffffffffffff163b1115611527578273ffffffffffffffffffffffffffffffffffffffff1663150b7a026113be610f32565b8685856040518563ffffffff1660e01b81526004016113e09493929190612a92565b6020604051808303815f875af192505050801561141b57506040513d601f19601f820116820180604052508101906114189190612af0565b60015b61149c573d805f8114611449576040519150601f19603f3d011682016040523d82523d5f602084013e61144e565b606091505b505f81510361149457836040517f64a0ae9200000000000000000000000000000000000000000000000000000000815260040161148b9190612107565b60405180910390fd5b805181602001fd5b63150b7a0260e01b7bffffffffffffffffffffffffffffffffffffffffffffffffffffffff1916817bffffffffffffffffffffffffffffffffffffffffffffffffffffffff19161461152557836040517f64a0ae9200000000000000000000000000000000000000000000000000000000815260040161151c9190612107565b60405180910390fd5b505b50505050565b5f7f01ffc9a7000000000000000000000000000000000000000000000000000000007bffffffffffffffffffffffffffffffffffffffffffffffffffffffff1916827bffffffffffffffffffffffffffffffffffffffffffffffffffffffff1916149050919050565b5f60025f8381526020019081526020015f205f9054906101000a900473ffffffffffffffffffffffffffffffffffffffff169050919050565b808061160757505f73ffffffffffffffffffffffffffffffffffffffff168273ffffffffffffffffffffffffffffffffffffffff1614155b15611739575f61161684610e73565b90505f73ffffffffffffffffffffffffffffffffffffffff168373ffffffffffffffffffffffffffffffffffffffff161415801561168057508273ffffffffffffffffffffffffffffffffffffffff168173ffffffffffffffffffffffffffffffffffffffff1614155b801561169357506116918184610c80565b155b156116d557826040517fa9fbf51f0000000000000000000000000000000000000000000000000000000081526004016116cc9190612107565b60405180910390fd5b811561173757838573ffffffffffffffffffffffffffffffffffffffff168273ffffffffffffffffffffffffffffffffffffffff167f8c5be1e5ebec7d5bd14f71427d1e84f3dd0314c0f7b2291e5b200ac8c7c3b92560405160405180910390a45b505b8360045f8581526020019081526020015f205f6101000a81548173ffffffffffffffffffffffffffffffffffffffff021916908373ffffffffffffffffffffffffffffffffffffffff16021790555050505050565b6117988383611c86565b6117a45f84848461137b565b505050565b5f806117b484611596565b90505f73ffffffffffffffffffffffffffffffffffffffff168373ffffffffffffffffffffffffffffffffffffffff16146117f5576117f4818486611d79565b5b5f73ffffffffffffffffffffffffffffffffffffffff168173ffffffffffffffffffffffffffffffffffffffff1614611880576118345f855f806115cf565b600160035f8373ffffffffffffffffffffffffffffffffffffffff1673ffffffffffffffffffffffffffffffffffffffff1681526020019081526020015f205f82825403925050819055505b5f73ffffffffffffffffffffffffffffffffffffffff168573ffffffffffffffffffffffffffffffffffffffff16146118ff57600160035f8773ffffffffffffffffffffffffffffffffffffffff1673ffffffffffffffffffffffffffffffffffffffff1681526020019081526020015f205f82825401925050819055505b8460025f8681526020019081526020015f205f6101000a81548173ffffffffffffffffffffffffffffffffffffffff021916908373ffffffffffffffffffffffffffffffffffffffff160217905550838573ffffffffffffffffffffffffffffffffffffffff168273ffffffffffffffffffffffffffffffffffffffff167fddf252ad1be2c89b69c2b068fc378daa952ba7f163c4a11628f55a4df523b3ef60405160405180910390a4809150509392505050565b60088054905060095f8381526020019081526020015f2081905550600881908060018154018082558091505060019003905f5260205f20015f909190919091505550565b5f611a0283610921565b90505f60075f8481526020019081526020015f20549050818114611ad9575f60065f8673ffffffffffffffffffffffffffffffffffffffff1673ffffffffffffffffffffffffffffffffffffffff1681526020019081526020015f205f8481526020019081526020015f205490508060065f8773ffffffffffffffffffffffffffffffffffffffff1673ffffffffffffffffffffffffffffffffffffffff1681526020019081526020015f205f8481526020019081526020015f20819055508160075f8381526020019081526020015f2081905550505b60075f8481526020019081526020015f205f905560065f8573ffffffffffffffffffffffffffffffffffffffff1673ffffffffffffffffffffffffffffffffffffffff1681526020019081526020015f205f8381526020019081526020015f205f905550505050565b5f6001600880549050611b559190612b1b565b90505f60095f8481526020019081526020015f205490505f60088381548110611b8157611b806127a7565b5b905f5260205f20015490508060088381548110611ba157611ba06127a7565b5b905f5260205f2001819055508160095f8381526020019081526020015f208190555060095f8581526020019081526020015f205f90556008805480611be957611be8612b4e565b5b600190038181905f5260205f20015f9055905550505050565b5f6001611c0e84610921565b611c189190612b1b565b90508160065f8573ffffffffffffffffffffffffffffffffffffffff1673ffffffffffffffffffffffffffffffffffffffff1681526020019081526020015f205f8381526020019081526020015f20819055508060075f8481526020019081526020015f2081905550505050565b5f73ffffffffffffffffffffffffffffffffffffffff168273ffffffffffffffffffffffffffffffffffffffff1603611cf6575f6040517f64a0ae92000000000000000000000000000000000000000000000000000000008152600401611ced9190612107565b60405180910390fd5b5f611d0283835f611035565b90505f73ffffffffffffffffffffffffffffffffffffffff168173ffffffffffffffffffffffffffffffffffffffff1614611d74575f6040517f73c6ac6e000000000000000000000000000000000000000000000000000000008152600401611d6b9190612107565b60405180910390fd5b505050565b611d84838383611e3c565b611e37575f73ffffffffffffffffffffffffffffffffffffffff168373ffffffffffffffffffffffffffffffffffffffff1603611df857806040517f7e273289000000000000000000000000000000000000000000000000000000008152600401611def919061234b565b60405180910390fd5b81816040517f177e802f000000000000000000000000000000000000000000000000000000008152600401611e2e929190612780565b60405180910390fd5b505050565b5f8073ffffffffffffffffffffffffffffffffffffffff168373ffffffffffffffffffffffffffffffffffffffff1614158015611ef357508273ffffffffffffffffffffffffffffffffffffffff168473ffffffffffffffffffffffffffffffffffffffff161480611eb45750611eb38484610c80565b5b80611ef257508273ffffffffffffffffffffffffffffffffffffffff16611eda83610ef9565b73ffffffffffffffffffffffffffffffffffffffff16145b5b90509392505050565b5f604051905090565b5f80fd5b5f80fd5b5f7fffffffff0000000000000000000000000000000000000000000000000000000082169050919050565b611f4181611f0d565b8114611f4b575f80fd5b50565b5f81359050611f5c81611f38565b92915050565b5f60208284031215611f7757611f76611f05565b5b5f611f8484828501611f4e565b91505092915050565b5f8115159050919050565b611fa181611f8d565b82525050565b5f602082019050611fba5f830184611f98565b92915050565b5f81519050919050565b5f82825260208201905092915050565b5f5b83811015611ff7578082015181840152602081019050611fdc565b5f8484015250505050565b5f601f19601f8301169050919050565b5f61201c82611fc0565b6120268185611fca565b9350612036818560208601611fda565b61203f81612002565b840191505092915050565b5f6020820190508181035f8301526120628184612012565b905092915050565b5f819050919050565b61207c8161206a565b8114612086575f80fd5b50565b5f8135905061209781612073565b92915050565b5f602082840312156120b2576120b1611f05565b5b5f6120bf84828501612089565b91505092915050565b5f73ffffffffffffffffffffffffffffffffffffffff82169050919050565b5f6120f1826120c8565b9050919050565b612101816120e7565b82525050565b5f60208201905061211a5f8301846120f8565b92915050565b612129816120e7565b8114612133575f80fd5b50565b5f8135905061214481612120565b92915050565b5f80604083850312156121605761215f611f05565b5b5f61216d85828601612136565b925050602061217e85828601612089565b9150509250929050565b5f80fd5b5f80fd5b7f4e487b71000000000000000000000000000000000000000000000000000000005f52604160045260245ffd5b6121c682612002565b810181811067ffffffffffffffff821117156121e5576121e4612190565b5b80604052505050565b5f6121f7611efc565b905061220382826121bd565b919050565b5f67ffffffffffffffff82111561222257612221612190565b5b61222b82612002565b9050602081019050919050565b828183375f83830152505050565b5f61225861225384612208565b6121ee565b9050828152602081018484840111156122745761227361218c565b5b61227f848285612238565b509392505050565b5f82601f83011261229b5761229a612188565b5b81356122ab848260208601612246565b91505092915050565b5f805f606084860312156122cb576122ca611f05565b5b5f6122d886828701612136565b935050602084013567ffffffffffffffff8111156122f9576122f8611f09565b5b61230586828701612287565b925050604084013567ffffffffffffffff81111561232657612325611f09565b5b61233286828701612287565b9150509250925092565b6123458161206a565b82525050565b5f60208201905061235e5f83018461233c565b92915050565b5f805f6060848603121561237b5761237a611f05565b5b5f61238886828701612136565b935050602061239986828701612136565b92505060406123aa86828701612089565b9150509250925092565b5f602082840312156123c9576123c8611f05565b5b5f6123d684828501612136565b91505092915050565b5f81519050919050565b5f82825260208201905092915050565b5f819050602082019050919050565b6124118161206a565b82525050565b5f6124228383612408565b60208301905092915050565b5f602082019050919050565b5f612444826123df565b61244e81856123e9565b9350612459836123f9565b805f5b838110156124895781516124708882612417565b975061247b8361242e565b92505060018101905061245c565b5085935050505092915050565b5f6020820190508181035f8301526124ae818461243a565b905092915050565b6124bf81611f8d565b81146124c9575f80fd5b50565b5f813590506124da816124b6565b92915050565b5f80604083850312156124f6576124f5611f05565b5b5f61250385828601612136565b9250506020612514858286016124cc565b9150509250929050565b5f67ffffffffffffffff82111561253857612537612190565b5b61254182612002565b9050602081019050919050565b5f61256061255b8461251e565b6121ee565b90508281526020810184848401111561257c5761257b61218c565b5b612587848285612238565b509392505050565b5f82601f8301126125a3576125a2612188565b5b81356125b384826020860161254e565b91505092915050565b5f805f80608085870312156125d4576125d3611f05565b5b5f6125e187828801612136565b94505060206125f287828801612136565b935050604061260387828801612089565b925050606085013567ffffffffffffffff81111561262457612623611f09565b5b6126308782880161258f565b91505092959194509250565b5f806040838503121561265257612651611f05565b5b5f61265f85828601612136565b925050602061267085828601612136565b9150509250929050565b7f4e487b71000000000000000000000000000000000000000000000000000000005f52602260045260245ffd5b5f60028204905060018216806126be57607f821691505b6020821081036126d1576126d061267a565b5b50919050565b7f4e487b71000000000000000000000000000000000000000000000000000000005f52601160045260245ffd5b5f61270e8261206a565b91507fffffffffffffffffffffffffffffffffffffffffffffffffffffffffffffffff82036127405761273f6126d7565b5b600182019050919050565b5f60608201905061275e5f8301866120f8565b61276b602083018561233c565b61277860408301846120f8565b949350505050565b5f6040820190506127935f8301856120f8565b6127a0602083018461233c565b9392505050565b7f4e487b71000000000000000000000000000000000000000000000000000000005f52603260045260245ffd5b5f819050815f5260205f209050919050565b5f6020601f8301049050919050565b5f82821b905092915050565b5f600883026128307fffffffffffffffffffffffffffffffffffffffffffffffffffffffffffffffff826127f5565b61283a86836127f5565b95508019841693508086168417925050509392505050565b5f819050919050565b5f61287561287061286b8461206a565b612852565b61206a565b9050919050565b5f819050919050565b61288e8361285b565b6128a261289a8261287c565b848454612801565b825550505050565b5f90565b6128b66128aa565b6128c1818484612885565b505050565b5b818110156128e4576128d95f826128ae565b6001810190506128c7565b5050565b601f821115612929576128fa816127d4565b612903846127e6565b81016020851015612912578190505b61292661291e856127e6565b8301826128c6565b50505b505050565b5f82821c905092915050565b5f6129495f198460080261292e565b1980831691505092915050565b5f612961838361293a565b9150826002028217905092915050565b61297a82611fc0565b67ffffffffffffffff81111561299357612992612190565b5b61299d82546126a7565b6129a88282856128e8565b5f60209050601f8311600181146129d9575f84156129c7578287015190505b6129d18582612956565b865550612a38565b601f1984166129e7866127d4565b5f5b82811015612a0e578489015182556001820191506020850194506020810190506129e9565b86831015612a2b5784890151612a27601f89168261293a565b8355505b6001600288020188555050505b505050505050565b5f81519050919050565b5f82825260208201905092915050565b5f612a6482612a40565b612a6e8185612a4a565b9350612a7e818560208601611fda565b612a8781612002565b840191505092915050565b5f608082019050612aa55f8301876120f8565b612ab260208301866120f8565b612abf604083018561233c565b8181036060830152612ad18184612a5a565b905095945050505050565b5f81519050612aea81611f38565b92915050565b5f60208284031215612b0557612b04611f05565b5b5f612b1284828501612adc565b91505092915050565b5f612b258261206a565b9150612b308361206a565b9250828203905081811115612b4857612b476126d7565b5b92915050565b7f4e487b71000000000000000000000000000000000000000000000000000000005f52603160045260245ffdfea2646970667358221220816370a98f60d76602405ab56d69e6cafaf41484c77560437de23e23e72ab2f464736f6c63430008140033",
  "immutableReferences": {},
  "source": "// contracts/ApiNFT.sol\r\npragma solidity ^0.8.20;\r\n\r\nimport \"../node_modules/@openzeppelin/contracts/token/ERC721/extensions/ERC721Enumerable.sol\";\r\nimport \"../node_modules/@openzeppelin/contracts/access/Ownable.sol\";\r\n\r\ncontract ApiNFT is ERC721Enumerable, Ownable {\r\n    uint256 public tokenCounter;\r\n\r\n    // Mapping from token ID to token URI\r\n    mapping (uint256 => string) private _tokenURIs;\r\n\r\n    // Mapping from token ID to additional string data\r\n    mapping (uint256 => string) private _tokenStrings;\r\n\r\n   \r\n\r\n    constructor() ERC721(\"ApiNFT\", \"ApiNFT\") Ownable(msg.sender) {\r\n        tokenCounter = 0;\r\n    }\r\n\r\n    function createNFT(address recipient, string memory tokenURI, string memory tokenString) public onlyOwner returns (uint256) {\r\n        uint256 newItemId = tokenCounter;\r\n        _safeMint(recipient, newItemId);\r\n        _setTokenURI(newItemId, tokenURI);\r\n        _setTokenString(newItemId, tokenString); // Set additional string data\r\n        tokenCounter++;\r\n        return newItemId;\r\n    }\r\n\r\n    function _setTokenURI(uint256 tokenId, string memory _tokenURI) internal virtual {\r\n        //require(_exists(tokenId), \"ERC721Metadata: URI set of nonexistent token\");\r\n        _tokenURIs[tokenId] = _tokenURI;\r\n    }\r\n\r\n    function _setTokenString(uint256 tokenId, string memory _tokenString) internal virtual {\r\n        //require(_exists(tokenId), \"ERC721Metadata: String set of nonexistent token\");\r\n        _tokenStrings[tokenId] = _tokenString;\r\n    }\r\n\r\n    function tokenURI(uint256 tokenId) public view virtual override returns (string memory) {\r\n        //require(_exists(tokenId), \"ERC721Metadata: URI query for nonexistent token\");\r\n        return _tokenURIs[tokenId];\r\n    }\r\n\r\n    // Retrieve additional string data for a token\r\n    function tokenString(uint256 tokenId) public view returns (string memory) {\r\n        //require(_exists(tokenId), \"ERC721Metadata: String query for nonexistent token\");\r\n        return _tokenStrings[tokenId];\r\n    }\r\n\r\n    //    NFT   \r\n    function tokensOfOwner(address owner) external view returns (uint256[] memory) {\r\n        uint256 tokenCount = balanceOf(owner);\r\n        if (tokenCount == 0) {\r\n            return new uint256[](0);\r\n        } else {\r\n            uint256[] memory result = new uint256[](tokenCount);\r\n            for (uint256 i = 0; i < tokenCount; i++) {\r\n                result[i] = tokenOfOwnerByIndex(owner, i);\r\n            }\r\n            return result;\r\n        }\r\n    }\r\n}\r\n",
  "sourcePath": "C:\\Users\\user\\Desktop\\vs-code-project\\os-nft-rest-truffle\\contracts\\ApiNFT.sol",
  "compiler": {
    "name": "solc",
    "version": "0.8.20+commit.a1b79de6.Emscripten.clang"
  },
  "schemaVersion": "3.4.16",
  "updatedAt": "2024-09-16T04:55:18.767Z",
  "networkType": "ethereum",
  "devdoc": {
    "errors": {
      "ERC721EnumerableForbiddenBatchMint()": [
        {
          "details": "Batch mint is not allowed."
        }
      ],
      "ERC721IncorrectOwner(address,uint256,address)": [
        {
          "details": "Indicates an error related to the ownership over a particular token. Used in transfers.",
          "params": {
            "owner": "Address of the current owner of a token.",
            "sender": "Address whose tokens are being transferred.",
            "tokenId": "Identifier number of a token."
          }
        }
      ],
      "ERC721InsufficientApproval(address,uint256)": [
        {
          "details": "Indicates a failure with the `operator`s approval. Used in transfers.",
          "params": {
            "operator": "Address that may be allowed to operate on tokens without being their owner.",
            "tokenId": "Identifier number of a token."
          }
        }
      ],
      "ERC721InvalidApprover(address)": [
        {
          "details": "Indicates a failure with the `approver` of a token to be approved. Used in approvals.",
          "params": {
            "approver": "Address initiating an approval operation."
          }
        }
      ],
      "ERC721InvalidOperator(address)": [
        {
          "details": "Indicates a failure with the `operator` to be approved. Used in approvals.",
          "params": {
            "operator": "Address that may be allowed to operate on tokens without being their owner."
          }
        }
      ],
      "ERC721InvalidOwner(address)": [
        {
          "details": "Indicates that an address can't be an owner. For example, `address(0)` is a forbidden owner in EIP-20. Used in balance queries.",
          "params": {
            "owner": "Address of the current owner of a token."
          }
        }
      ],
      "ERC721InvalidReceiver(address)": [
        {
          "details": "Indicates a failure with the token `receiver`. Used in transfers.",
          "params": {
            "receiver": "Address to which tokens are being transferred."
          }
        }
      ],
      "ERC721InvalidSender(address)": [
        {
          "details": "Indicates a failure with the token `sender`. Used in transfers.",
          "params": {
            "sender": "Address whose tokens are being transferred."
          }
        }
      ],
      "ERC721NonexistentToken(uint256)": [
        {
          "details": "Indicates a `tokenId` whose `owner` is the zero address.",
          "params": {
            "tokenId": "Identifier number of a token."
          }
        }
      ],
      "ERC721OutOfBoundsIndex(address,uint256)": [
        {
          "details": "An `owner`'s token query was out of bounds for `index`. NOTE: The owner being `address(0)` indicates a global out of bounds index."
        }
      ],
      "OwnableInvalidOwner(address)": [
        {
          "details": "The owner is not a valid owner account. (eg. `address(0)`)"
        }
      ],
      "OwnableUnauthorizedAccount(address)": [
        {
          "details": "The caller account is not authorized to perform an operation."
        }
      ]
    },
    "events": {
      "Approval(address,address,uint256)": {
        "details": "Emitted when `owner` enables `approved` to manage the `tokenId` token."
      },
      "ApprovalForAll(address,address,bool)": {
        "details": "Emitted when `owner` enables or disables (`approved`) `operator` to manage all of its assets."
      },
      "Transfer(address,address,uint256)": {
        "details": "Emitted when `tokenId` token is transferred from `from` to `to`."
      }
    },
    "kind": "dev",
    "methods": {
      "approve(address,uint256)": {
        "details": "See {IERC721-approve}."
      },
      "balanceOf(address)": {
        "details": "See {IERC721-balanceOf}."
      },
      "getApproved(uint256)": {
        "details": "See {IERC721-getApproved}."
      },
      "isApprovedForAll(address,address)": {
        "details": "See {IERC721-isApprovedForAll}."
      },
      "name()": {
        "details": "See {IERC721Metadata-name}."
      },
      "owner()": {
        "details": "Returns the address of the current owner."
      },
      "ownerOf(uint256)": {
        "details": "See {IERC721-ownerOf}."
      },
      "renounceOwnership()": {
        "details": "Leaves the contract without owner. It will not be possible to call `onlyOwner` functions. Can only be called by the current owner. NOTE: Renouncing ownership will leave the contract without an owner, thereby disabling any functionality that is only available to the owner."
      },
      "safeTransferFrom(address,address,uint256)": {
        "details": "See {IERC721-safeTransferFrom}."
      },
      "safeTransferFrom(address,address,uint256,bytes)": {
        "details": "See {IERC721-safeTransferFrom}."
      },
      "setApprovalForAll(address,bool)": {
        "details": "See {IERC721-setApprovalForAll}."
      },
      "supportsInterface(bytes4)": {
        "details": "See {IERC165-supportsInterface}."
      },
      "symbol()": {
        "details": "See {IERC721Metadata-symbol}."
      },
      "tokenByIndex(uint256)": {
        "details": "See {IERC721Enumerable-tokenByIndex}."
      },
      "tokenOfOwnerByIndex(address,uint256)": {
        "details": "See {IERC721Enumerable-tokenOfOwnerByIndex}."
      },
      "tokenURI(uint256)": {
        "details": "See {IERC721Metadata-tokenURI}."
      },
      "totalSupply()": {
        "details": "See {IERC721Enumerable-totalSupply}."
      },
      "transferFrom(address,address,uint256)": {
        "details": "See {IERC721-transferFrom}."
      },
      "transferOwnership(address)": {
        "details": "Transfers ownership of the contract to a new account (`newOwner`). Can only be called by the current owner."
      }
    },
    "version": 1
  },
  "userdoc": {
    "kind": "user",
    "methods": {},
    "version": 1
  }
}